{
    "contractName": "BB",
    "abi": [
        {
            "inputs": [
                {
                    "internalType": "string",
                    "name": "_name",
                    "type": "string"
                },
                {
                    "internalType": "uint8",
                    "name": "_age",
                    "type": "uint8"
                },
                {
                    "internalType": "string",
                    "name": "_bloodgroup",
                    "type": "string"
                }
            ],
            "stateMutability": "nonpayable",
            "type": "constructor"
        },
        {
            "inputs": [],
            "name": "getAge",
            "outputs": [
                {
                    "internalType": "uint8",
                    "name": "",
                    "type": "uint8"
                }
            ],
            "stateMutability": "view",
            "type": "function"
        },
        {
            "inputs": [],
            "name": "getBG",
            "outputs": [
                {
                    "internalType": "string",
                    "name": "",
                    "type": "string"
                }
            ],
            "stateMutability": "view",
            "type": "function"
        },
        {
            "inputs": [],
            "name": "getName",
            "outputs": [
                {
                    "internalType": "string",
                    "name": "",
                    "type": "string"
                }
            ],
            "stateMutability": "view",
            "type": "function"
        }
    ],
    "bytecode": "608060405234801561001057600080fd5b506040516104ce3803806104ce83398101604081905261002f9161011b565b600061003b8482610220565b506001805460ff191660ff841617905560026100578282610220565b505050506102df565b634e487b7160e01b600052604160045260246000fd5b600082601f83011261008757600080fd5b81516001600160401b03808211156100a1576100a1610060565b604051601f8301601f19908116603f011681019082821181831017156100c9576100c9610060565b816040528381526020925086838588010111156100e557600080fd5b600091505b8382101561010757858201830151818301840152908201906100ea565b600093810190920192909252949350505050565b60008060006060848603121561013057600080fd5b83516001600160401b038082111561014757600080fd5b61015387838801610076565b94506020860151915060ff8216821461016b57600080fd5b60408601519193508082111561018057600080fd5b5061018d86828701610076565b9150509250925092565b600181811c908216806101ab57607f821691505b6020821081036101cb57634e487b7160e01b600052602260045260246000fd5b50919050565b601f82111561021b57600081815260208120601f850160051c810160208610156101f85750805b601f850160051c820191505b8181101561021757828155600101610204565b5050505b505050565b81516001600160401b0381111561023957610239610060565b61024d816102478454610197565b846101d1565b602080601f831160018114610282576000841561026a5750858301515b600019600386901b1c1916600185901b178555610217565b600085815260208120601f198616915b828110156102b157888601518255948401946001909101908401610292565b50858210156102cf5787850151600019600388901b60f8161c191681555b5050505050600190811b01905550565b6101e0806102ee6000396000f3fe608060405234801561001057600080fd5b50600436106100415760003560e01c806317d7de7c146100465780637e2bac6714610064578063967e6e651461006c575b600080fd5b61004e610081565b60405161005b9190610122565b60405180910390f35b61004e610113565b60015460405160ff909116815260200161005b565b60606000805461009090610170565b80601f01602080910402602001604051908101604052809291908181526020018280546100bc90610170565b80156101095780601f106100de57610100808354040283529160200191610109565b820191906000526020600020905b8154815290600101906020018083116100ec57829003601f168201915b5050505050905090565b60606002805461009090610170565b600060208083528351808285015260005b8181101561014f57858101830151858201604001528201610133565b506000604082860101526040601f19601f8301168501019250505092915050565b600181811c9082168061018457607f821691505b6020821081036101a457634e487b7160e01b600052602260045260246000fd5b5091905056fea2646970667358221220eb8c2e11c8f7d67e4962c86368402b124de8db61aed71bacfb0eb92c8f30766164736f6c63430008130033",
    "sourcePath": "/Users/jaseempaloth/Developer/workspace/ethereum-smart-contracts-workspace/Blood Bank/BB.sol",
    "compiler": {
        "name": "solc",
        "version": "0.8.19+commit.7dd6d404"
    },
    "functionHashes": {
        "getAge()": "967e6e65",
        "getBG()": "7e2bac67",
        "getName()": "17d7de7c"
    },
    "gasEstimates": {
        "creation": {
            "codeDepositCost": "96000",
            "executionCost": "infinite",
            "totalCost": "infinite"
        },
        "external": {
            "getAge()": "2311",
            "getBG()": "infinite",
            "getName()": "infinite"
        }
    }
}