{
    "contractName": "AttendanceManager",
    "abi": [
        {
            "inputs": [],
            "stateMutability": "nonpayable",
            "type": "constructor"
        },
        {
            "anonymous": false,
            "inputs": [
                {
                    "indexed": false,
                    "internalType": "string",
                    "name": "name",
                    "type": "string"
                },
                {
                    "indexed": false,
                    "internalType": "uint256",
                    "name": "class",
                    "type": "uint256"
                },
                {
                    "indexed": false,
                    "internalType": "uint256",
                    "name": "time",
                    "type": "uint256"
                }
            ],
            "name": "Added",
            "type": "event"
        },
        {
            "inputs": [
                {
                    "internalType": "string",
                    "name": "name",
                    "type": "string"
                },
                {
                    "internalType": "uint256",
                    "name": "class",
                    "type": "uint256"
                }
            ],
            "name": "add",
            "outputs": [],
            "stateMutability": "nonpayable",
            "type": "function"
        },
        {
            "inputs": [
                {
                    "internalType": "uint8",
                    "name": "",
                    "type": "uint8"
                }
            ],
            "name": "registered",
            "outputs": [
                {
                    "internalType": "string",
                    "name": "name",
                    "type": "string"
                },
                {
                    "internalType": "uint256",
                    "name": "class",
                    "type": "uint256"
                }
            ],
            "stateMutability": "view",
            "type": "function"
        },
        {
            "inputs": [],
            "name": "teacher",
            "outputs": [
                {
                    "internalType": "address",
                    "name": "",
                    "type": "address"
                }
            ],
            "stateMutability": "view",
            "type": "function"
        }
    ],
    "bytecode": "608060405234801561001057600080fd5b50600080546001600160a01b031916331790556105ea806100326000396000f3fe608060405234801561001057600080fd5b50600436106100415760003560e01c806336555b8514610046578063b46bff891461005b578063ba6e485f1461008b575b600080fd5b6100596100543660046102d2565b6100ac565b005b60005461006e906001600160a01b031681565b6040516001600160a01b0390911681526020015b60405180910390f35b61009e610099366004610387565b610218565b6040516100829291906103f7565b6000546001600160a01b0316331461010b5760405162461bcd60e51b815260206004820152601d60248201527f4f6e6c7920746561636865722063616e206164642073747564656e747300000060448201526064015b60405180910390fd5b60008111801561011c5750600c8111155b6101585760405162461bcd60e51b815260206004820152600d60248201526c496e76616c696420436c61737360981b6044820152606401610102565b604080518082019091528281526020810182905260008054600160a01b900460ff1690601461018683610419565b82546101009290920a60ff81810219909316918316021790915560008054600160a01b90049091168152600160205260409020825183925081906101ca90826104cf565b50602082015181600101559050507f837102bfa3fa1437554712a20c1c1d67b6689aa3f9739b4fb7cb2d1eab97a2b983834260405161020b9392919061058f565b60405180910390a1505050565b60016020526000908152604090208054819061023390610446565b80601f016020809104026020016040519081016040528092919081815260200182805461025f90610446565b80156102ac5780601f10610281576101008083540402835291602001916102ac565b820191906000526020600020905b81548152906001019060200180831161028f57829003601f168201915b5050505050908060010154905082565b634e487b7160e01b600052604160045260246000fd5b600080604083850312156102e557600080fd5b823567ffffffffffffffff808211156102fd57600080fd5b818501915085601f83011261031157600080fd5b813581811115610323576103236102bc565b604051601f8201601f19908116603f0116810190838211818310171561034b5761034b6102bc565b8160405282815288602084870101111561036457600080fd5b826020860160208301376000602093820184015298969091013596505050505050565b60006020828403121561039957600080fd5b813560ff811681146103aa57600080fd5b9392505050565b6000815180845260005b818110156103d7576020818501810151868301820152016103bb565b506000602082860101526020601f19601f83011685010191505092915050565b60408152600061040a60408301856103b1565b90508260208301529392505050565b600060ff821660ff810361043d57634e487b7160e01b600052601160045260246000fd5b60010192915050565b600181811c9082168061045a57607f821691505b60208210810361047a57634e487b7160e01b600052602260045260246000fd5b50919050565b601f8211156104ca57600081815260208120601f850160051c810160208610156104a75750805b601f850160051c820191505b818110156104c6578281556001016104b3565b5050505b505050565b815167ffffffffffffffff8111156104e9576104e96102bc565b6104fd816104f78454610446565b84610480565b602080601f831160018114610532576000841561051a5750858301515b600019600386901b1c1916600185901b1785556104c6565b600085815260208120601f198616915b8281101561056157888601518255948401946001909101908401610542565b508582101561057f5787850151600019600388901b60f8161c191681555b5050505050600190811b01905550565b6060815260006105a260608301866103b1565b6020830194909452506040015291905056fea2646970667358221220272dfaad79e224d76567187dbe0ec5882d1e3f0ce2ccbf387179670ccebdcc1564736f6c63430008130033",
    "sourcePath": "/Users/jaseempaloth/Developer/workspace/ethereum-smart-contracts-workspace/Attendance Register System/AttendanceManager.sol",
    "compiler": {
        "name": "solc",
        "version": "0.8.19+commit.7dd6d404"
    },
    "functionHashes": {
        "add(string,uint256)": "36555b85",
        "registered(uint8)": "ba6e485f",
        "teacher()": "b46bff89"
    },
    "gasEstimates": {
        "creation": {
            "codeDepositCost": "302800",
            "executionCost": "24578",
            "totalCost": "327378"
        },
        "external": {
            "add(string,uint256)": "infinite",
            "registered(uint8)": "infinite",
            "teacher()": "2326"
        }
    }
}