{
    "contractName": "Rent",
    "abi": [
        {
            "inputs": [
                {
                    "internalType": "string",
                    "name": "name",
                    "type": "string"
                },
                {
                    "internalType": "uint8",
                    "name": "age",
                    "type": "uint8"
                },
                {
                    "internalType": "string",
                    "name": "occupation",
                    "type": "string"
                }
            ],
            "stateMutability": "nonpayable",
            "type": "constructor"
        },
        {
            "inputs": [],
            "name": "landlord",
            "outputs": [
                {
                    "internalType": "address payable",
                    "name": "",
                    "type": "address"
                }
            ],
            "stateMutability": "view",
            "type": "function"
        },
        {
            "inputs": [],
            "name": "tenantAge",
            "outputs": [
                {
                    "internalType": "uint8",
                    "name": "",
                    "type": "uint8"
                }
            ],
            "stateMutability": "view",
            "type": "function"
        },
        {
            "inputs": [],
            "name": "tenantName",
            "outputs": [
                {
                    "internalType": "string",
                    "name": "",
                    "type": "string"
                }
            ],
            "stateMutability": "view",
            "type": "function"
        },
        {
            "inputs": [],
            "name": "tenantOccupation",
            "outputs": [
                {
                    "internalType": "string",
                    "name": "",
                    "type": "string"
                }
            ],
            "stateMutability": "view",
            "type": "function"
        },
        {
            "stateMutability": "payable",
            "type": "receive"
        }
    ],
    "bytecode": "608060405234801561001057600080fd5b5060405161058338038061058383398101604081905261002f9161012e565b600161003b8482610233565b506002805460ff191660ff841617905560036100578282610233565b5050600080546001600160a01b03191633179055506102f29050565b634e487b7160e01b600052604160045260246000fd5b600082601f83011261009a57600080fd5b81516001600160401b03808211156100b4576100b4610073565b604051601f8301601f19908116603f011681019082821181831017156100dc576100dc610073565b816040528381526020925086838588010111156100f857600080fd5b600091505b8382101561011a57858201830151818301840152908201906100fd565b600093810190920192909252949350505050565b60008060006060848603121561014357600080fd5b83516001600160401b038082111561015a57600080fd5b61016687838801610089565b94506020860151915060ff8216821461017e57600080fd5b60408601519193508082111561019357600080fd5b506101a086828701610089565b9150509250925092565b600181811c908216806101be57607f821691505b6020821081036101de57634e487b7160e01b600052602260045260246000fd5b50919050565b601f82111561022e57600081815260208120601f850160051c8101602086101561020b5750805b601f850160051c820191505b8181101561022a57828155600101610217565b5050505b505050565b81516001600160401b0381111561024c5761024c610073565b6102608161025a84546101aa565b846101e4565b602080601f831160018114610295576000841561027d5750858301515b600019600386901b1c1916600185901b17855561022a565b600085815260208120601f198616915b828110156102c4578886015182559484019460019091019084016102a5565b50858210156102e25787850151600019600388901b60f8161c191681555b5050505050600190811b01905550565b610282806103016000396000f3fe6080604052600436106100435760003560e01c80631cb5a1f71461008957806399819703146100ba578063dc1997ea146100dc578063f63e7db21461011457600080fd5b3661008457600080546040516001600160a01b03909116913480156108fc02929091818181858888f19350505050158015610082573d6000803e3d6000fd5b005b600080fd5b34801561009557600080fd5b506002546100a39060ff1681565b60405160ff90911681526020015b60405180910390f35b3480156100c657600080fd5b506100cf610129565b6040516100b191906101c4565b3480156100e857600080fd5b506000546100fc906001600160a01b031681565b6040516001600160a01b0390911681526020016100b1565b34801561012057600080fd5b506100cf6101b7565b6003805461013690610212565b80601f016020809104026020016040519081016040528092919081815260200182805461016290610212565b80156101af5780601f10610184576101008083540402835291602001916101af565b820191906000526020600020905b81548152906001019060200180831161019257829003601f168201915b505050505081565b6001805461013690610212565b600060208083528351808285015260005b818110156101f1578581018301518582016040015282016101d5565b506000604082860101526040601f19601f8301168501019250505092915050565b600181811c9082168061022657607f821691505b60208210810361024657634e487b7160e01b600052602260045260246000fd5b5091905056fea2646970667358221220d81419596952fa282158015b841883bb0a7cadd15dff00c3672e7cf9a5a3482064736f6c63430008130033",
    "sourcePath": "/Users/jaseempaloth/Developer/workspace/ethereum-smart-contracts-workspace/2_Rent Collection/Rent.sol",
    "compiler": {
        "name": "solc",
        "version": "0.8.19+commit.7dd6d404"
    },
    "functionHashes": {
        "landlord()": "dc1997ea",
        "tenantAge()": "1cb5a1f7",
        "tenantName()": "f63e7db2",
        "tenantOccupation()": "99819703"
    },
    "gasEstimates": {
        "creation": {
            "codeDepositCost": "128400",
            "executionCost": "infinite",
            "totalCost": "infinite"
        },
        "external": {
            "landlord()": "2359",
            "tenantAge()": "2280",
            "tenantName()": "infinite",
            "tenantOccupation()": "infinite"
        }
    }
}