{
    "contractName": "Allocation",
    "abi": [
        {
            "inputs": [
                {
                    "internalType": "string",
                    "name": "_employeeId",
                    "type": "string"
                },
                {
                    "internalType": "string",
                    "name": "_projectId",
                    "type": "string"
                }
            ],
            "name": "allocate",
            "outputs": [
                {
                    "internalType": "string",
                    "name": "",
                    "type": "string"
                }
            ],
            "stateMutability": "view",
            "type": "function"
        },
        {
            "inputs": [],
            "name": "employee",
            "outputs": [
                {
                    "internalType": "uint256",
                    "name": "id",
                    "type": "uint256"
                },
                {
                    "internalType": "string",
                    "name": "name",
                    "type": "string"
                },
                {
                    "internalType": "string",
                    "name": "email",
                    "type": "string"
                },
                {
                    "internalType": "uint256",
                    "name": "salary",
                    "type": "uint256"
                }
            ],
            "stateMutability": "view",
            "type": "function"
        },
        {
            "inputs": [
                {
                    "internalType": "uint256",
                    "name": "_id",
                    "type": "uint256"
                },
                {
                    "internalType": "string",
                    "name": "_name",
                    "type": "string"
                },
                {
                    "internalType": "string",
                    "name": "_email",
                    "type": "string"
                },
                {
                    "internalType": "uint256",
                    "name": "_salary",
                    "type": "uint256"
                }
            ],
            "name": "join",
            "outputs": [],
            "stateMutability": "nonpayable",
            "type": "function"
        },
        {
            "inputs": [],
            "name": "nextSteps",
            "outputs": [
                {
                    "internalType": "string",
                    "name": "",
                    "type": "string"
                }
            ],
            "stateMutability": "view",
            "type": "function"
        }
    ],
    "bytecode": "608060405234801561001057600080fd5b50610778806100206000396000f3fe608060405234801561001057600080fd5b506004361061004c5760003560e01c80634017b86d146100515780639e195b901461006f578063a0a1a7d714610082578063c9fee1951461009a575b600080fd5b6100596100af565b60405161006691906102f5565b60405180910390f35b61005961007d3660046103b2565b6100be565b61008a6100f6565b6040516100669493929190610416565b6100ad6100a8366004610453565b610221565b005b60606100b961027c565b905090565b6060600083836040516020016100d59291906104c8565b60405160208183030381529060405290506100ee6100af565b509392505050565b600080546001805491929161010a90610542565b80601f016020809104026020016040519081016040528092919081815260200182805461013690610542565b80156101835780601f1061015857610100808354040283529160200191610183565b820191906000526020600020905b81548152906001019060200180831161016657829003601f168201915b50505050509080600201805461019890610542565b80601f01602080910402602001604051908101604052809291908181526020018280546101c490610542565b80156102115780601f106101e657610100808354040283529160200191610211565b820191906000526020600020905b8154815290600101906020018083116101f457829003601f168201915b5050505050908060030154905084565b6040805160808101825285815260208101859052908101839052606081018290526000858155600161025386826105cb565b506040820151600282019061026890826105cb565b506060820151816003015590505050505050565b6040516060906102919060029060200161068b565b604051602081830303815290604052905090565b60005b838110156102c05781810151838201526020016102a8565b50506000910152565b600081518084526102e18160208601602086016102a5565b601f01601f19169290920160200192915050565b60208152600061030860208301846102c9565b9392505050565b634e487b7160e01b600052604160045260246000fd5b600082601f83011261033657600080fd5b813567ffffffffffffffff808211156103515761035161030f565b604051601f8301601f19908116603f011681019082821181831017156103795761037961030f565b8160405283815286602085880101111561039257600080fd5b836020870160208301376000602085830101528094505050505092915050565b600080604083850312156103c557600080fd5b823567ffffffffffffffff808211156103dd57600080fd5b6103e986838701610325565b935060208501359150808211156103ff57600080fd5b5061040c85828601610325565b9150509250929050565b84815260806020820152600061042f60808301866102c9565b828103604084015261044181866102c9565b91505082606083015295945050505050565b6000806000806080858703121561046957600080fd5b84359350602085013567ffffffffffffffff8082111561048857600080fd5b61049488838901610325565b945060408701359150808211156104aa57600080fd5b506104b787828801610325565b949793965093946060013593505050565b7502a34329022b6b83637bcb2b2903bb4ba341034b21d160551b8152600083516104f98160168501602088016102a5565b7f2c20697320616464656420746f2070726f6a65637420776974682069643a200060169184019182015283516105368160358401602088016102a5565b01603501949350505050565b600181811c9082168061055657607f821691505b60208210810361057657634e487b7160e01b600052602260045260246000fd5b50919050565b601f8211156105c657600081815260208120601f850160051c810160208610156105a35750805b601f850160051c820191505b818110156105c2578281556001016105af565b5050505b505050565b815167ffffffffffffffff8111156105e5576105e561030f565b6105f9816105f38454610542565b8461057c565b602080601f83116001811461062e57600084156106165750858301515b600019600386901b1c1916600185901b1785556105c2565b600085815260208120601f198616915b8281101561065d5788860151825594840194600190910190840161063e565b508582101561067b5787850151600019600388901b60f8161c191681555b5050505050600190811b01905550565b7f53656e642077656c636f6d6520656d61696c20746f20656d706c6f79656520778152600060206934ba341032b6b0b4b61d60b11b81840152602a600085546106d381610542565b600182811680156106eb576001811461070457610734565b60ff198416898701528215158302890186019450610734565b896000528660002060005b8481101561072a5781548b820189015290830190880161070f565b505085838a010194505b50929897505050505050505056fea26469706673582212208defb8dda27281ff442b74b8a94083674e3e3a9bf291f33d7baf475a53f96b5864736f6c63430008130033",
    "sourcePath": "/Users/jaseempaloth/Developer/workspace/ethereum-smart-contracts-workspace/Employee Onboarding and Project Allocation/Onboarding.sol",
    "compiler": {
        "name": "solc",
        "version": "0.8.19+commit.7dd6d404"
    },
    "functionHashes": {
        "allocate(string,string)": "9e195b90",
        "employee()": "a0a1a7d7",
        "join(uint256,string,string,uint256)": "c9fee195",
        "nextSteps()": "4017b86d"
    },
    "gasEstimates": {
        "creation": {
            "codeDepositCost": "382400",
            "executionCost": "418",
            "totalCost": "382818"
        },
        "external": {
            "allocate(string,string)": "infinite",
            "employee()": "infinite",
            "join(uint256,string,string,uint256)": "infinite",
            "nextSteps()": "infinite"
        },
        "internal": {
            "sendWelcomeEmail()": "infinite"
        }
    }
}