{
	"data": {
		"bytecode": {
			"linkReferences": {},
			"object": "608060405234801561001057600080fd5b5061033f806100206000396000f3fe608060405234801561001057600080fd5b50600436106100365760003560e01c80630bfb06861461003b578063de29278914610057575b600080fd5b61005560048036038101906100509190610185565b610075565b005b61005f6100b6565b60405161006c9190610255565b60405180910390f35b6000818361008391906102a6565b905060ff811115610097576100966102da565b5b60016000806101000a81548160ff021916908315150217905550505050565b60606001151560008054906101000a900460ff1615150361010e576040518060400160405280600b81526020017f4e6f206f766572666c6f770000000000000000000000000000000000000000008152509050610147565b6040518060400160405280600e81526020017f6f766572666c6f7720657869737400000000000000000000000000000000000081525090505b90565b600080fd5b6000819050919050565b6101628161014f565b811461016d57600080fd5b50565b60008135905061017f81610159565b92915050565b6000806040838503121561019c5761019b61014a565b5b60006101aa85828601610170565b92505060206101bb85828601610170565b9150509250929050565b600081519050919050565b600082825260208201905092915050565b60005b838110156101ff5780820151818401526020810190506101e4565b60008484015250505050565b6000601f19601f8301169050919050565b6000610227826101c5565b61023181856101d0565b93506102418185602086016101e1565b61024a8161020b565b840191505092915050565b6000602082019050818103600083015261026f818461021c565b905092915050565b7f4e487b7100000000000000000000000000000000000000000000000000000000600052601160045260246000fd5b60006102b18261014f565b91506102bc8361014f565b92508282019050808211156102d4576102d3610277565b5b92915050565b7f4e487b7100000000000000000000000000000000000000000000000000000000600052600160045260246000fdfea26469706673582212205b7c02525ca822156ae5e0ce600e0e9d3a0ffcde6c89fbfcb9ea0d3c6cc5c8bf64736f6c63430008130033",
			"opcodes": "PUSH1 0x80 PUSH1 0x40 MSTORE CALLVALUE DUP1 ISZERO PUSH2 0x10 JUMPI PUSH1 0x0 DUP1 REVERT JUMPDEST POP PUSH2 0x33F DUP1 PUSH2 0x20 PUSH1 0x0 CODECOPY PUSH1 0x0 RETURN INVALID PUSH1 0x80 PUSH1 0x40 MSTORE CALLVALUE DUP1 ISZERO PUSH2 0x10 JUMPI PUSH1 0x0 DUP1 REVERT JUMPDEST POP PUSH1 0x4 CALLDATASIZE LT PUSH2 0x36 JUMPI PUSH1 0x0 CALLDATALOAD PUSH1 0xE0 SHR DUP1 PUSH4 0xBFB0686 EQ PUSH2 0x3B JUMPI DUP1 PUSH4 0xDE292789 EQ PUSH2 0x57 JUMPI JUMPDEST PUSH1 0x0 DUP1 REVERT JUMPDEST PUSH2 0x55 PUSH1 0x4 DUP1 CALLDATASIZE SUB DUP2 ADD SWAP1 PUSH2 0x50 SWAP2 SWAP1 PUSH2 0x185 JUMP JUMPDEST PUSH2 0x75 JUMP JUMPDEST STOP JUMPDEST PUSH2 0x5F PUSH2 0xB6 JUMP JUMPDEST PUSH1 0x40 MLOAD PUSH2 0x6C SWAP2 SWAP1 PUSH2 0x255 JUMP JUMPDEST PUSH1 0x40 MLOAD DUP1 SWAP2 SUB SWAP1 RETURN JUMPDEST PUSH1 0x0 DUP2 DUP4 PUSH2 0x83 SWAP2 SWAP1 PUSH2 0x2A6 JUMP JUMPDEST SWAP1 POP PUSH1 0xFF DUP2 GT ISZERO PUSH2 0x97 JUMPI PUSH2 0x96 PUSH2 0x2DA JUMP JUMPDEST JUMPDEST PUSH1 0x1 PUSH1 0x0 DUP1 PUSH2 0x100 EXP DUP2 SLOAD DUP2 PUSH1 0xFF MUL NOT AND SWAP1 DUP4 ISZERO ISZERO MUL OR SWAP1 SSTORE POP POP POP POP JUMP JUMPDEST PUSH1 0x60 PUSH1 0x1 ISZERO ISZERO PUSH1 0x0 DUP1 SLOAD SWAP1 PUSH2 0x100 EXP SWAP1 DIV PUSH1 0xFF AND ISZERO ISZERO SUB PUSH2 0x10E JUMPI PUSH1 0x40 MLOAD DUP1 PUSH1 0x40 ADD PUSH1 0x40 MSTORE DUP1 PUSH1 0xB DUP2 MSTORE PUSH1 0x20 ADD PUSH32 0x4E6F206F766572666C6F77000000000000000000000000000000000000000000 DUP2 MSTORE POP SWAP1 POP PUSH2 0x147 JUMP JUMPDEST PUSH1 0x40 MLOAD DUP1 PUSH1 0x40 ADD PUSH1 0x40 MSTORE DUP1 PUSH1 0xE DUP2 MSTORE PUSH1 0x20 ADD PUSH32 0x6F766572666C6F77206578697374000000000000000000000000000000000000 DUP2 MSTORE POP SWAP1 POP JUMPDEST SWAP1 JUMP JUMPDEST PUSH1 0x0 DUP1 REVERT JUMPDEST PUSH1 0x0 DUP2 SWAP1 POP SWAP2 SWAP1 POP JUMP JUMPDEST PUSH2 0x162 DUP2 PUSH2 0x14F JUMP JUMPDEST DUP2 EQ PUSH2 0x16D JUMPI PUSH1 0x0 DUP1 REVERT JUMPDEST POP JUMP JUMPDEST PUSH1 0x0 DUP2 CALLDATALOAD SWAP1 POP PUSH2 0x17F DUP2 PUSH2 0x159 JUMP JUMPDEST SWAP3 SWAP2 POP POP JUMP JUMPDEST PUSH1 0x0 DUP1 PUSH1 0x40 DUP4 DUP6 SUB SLT ISZERO PUSH2 0x19C JUMPI PUSH2 0x19B PUSH2 0x14A JUMP JUMPDEST JUMPDEST PUSH1 0x0 PUSH2 0x1AA DUP6 DUP3 DUP7 ADD PUSH2 0x170 JUMP JUMPDEST SWAP3 POP POP PUSH1 0x20 PUSH2 0x1BB DUP6 DUP3 DUP7 ADD PUSH2 0x170 JUMP JUMPDEST SWAP2 POP POP SWAP3 POP SWAP3 SWAP1 POP JUMP JUMPDEST PUSH1 0x0 DUP2 MLOAD SWAP1 POP SWAP2 SWAP1 POP JUMP JUMPDEST PUSH1 0x0 DUP3 DUP3 MSTORE PUSH1 0x20 DUP3 ADD SWAP1 POP SWAP3 SWAP2 POP POP JUMP JUMPDEST PUSH1 0x0 JUMPDEST DUP4 DUP2 LT ISZERO PUSH2 0x1FF JUMPI DUP1 DUP3 ADD MLOAD DUP2 DUP5 ADD MSTORE PUSH1 0x20 DUP2 ADD SWAP1 POP PUSH2 0x1E4 JUMP JUMPDEST PUSH1 0x0 DUP5 DUP5 ADD MSTORE POP POP POP POP JUMP JUMPDEST PUSH1 0x0 PUSH1 0x1F NOT PUSH1 0x1F DUP4 ADD AND SWAP1 POP SWAP2 SWAP1 POP JUMP JUMPDEST PUSH1 0x0 PUSH2 0x227 DUP3 PUSH2 0x1C5 JUMP JUMPDEST PUSH2 0x231 DUP2 DUP6 PUSH2 0x1D0 JUMP JUMPDEST SWAP4 POP PUSH2 0x241 DUP2 DUP6 PUSH1 0x20 DUP7 ADD PUSH2 0x1E1 JUMP JUMPDEST PUSH2 0x24A DUP2 PUSH2 0x20B JUMP JUMPDEST DUP5 ADD SWAP2 POP POP SWAP3 SWAP2 POP POP JUMP JUMPDEST PUSH1 0x0 PUSH1 0x20 DUP3 ADD SWAP1 POP DUP2 DUP2 SUB PUSH1 0x0 DUP4 ADD MSTORE PUSH2 0x26F DUP2 DUP5 PUSH2 0x21C JUMP JUMPDEST SWAP1 POP SWAP3 SWAP2 POP POP JUMP JUMPDEST PUSH32 0x4E487B7100000000000000000000000000000000000000000000000000000000 PUSH1 0x0 MSTORE PUSH1 0x11 PUSH1 0x4 MSTORE PUSH1 0x24 PUSH1 0x0 REVERT JUMPDEST PUSH1 0x0 PUSH2 0x2B1 DUP3 PUSH2 0x14F JUMP JUMPDEST SWAP2 POP PUSH2 0x2BC DUP4 PUSH2 0x14F JUMP JUMPDEST SWAP3 POP DUP3 DUP3 ADD SWAP1 POP DUP1 DUP3 GT ISZERO PUSH2 0x2D4 JUMPI PUSH2 0x2D3 PUSH2 0x277 JUMP JUMPDEST JUMPDEST SWAP3 SWAP2 POP POP JUMP JUMPDEST PUSH32 0x4E487B7100000000000000000000000000000000000000000000000000000000 PUSH1 0x0 MSTORE PUSH1 0x1 PUSH1 0x4 MSTORE PUSH1 0x24 PUSH1 0x0 REVERT INVALID LOG2 PUSH5 0x6970667358 0x22 SLT KECCAK256 JUMPDEST PUSH29 0x2525CA822156AE5E0CE600E0E9D3A0FFCDE6C89FBFCB9EA0D3C6CC5C8 0xBF PUSH5 0x736F6C6343 STOP ADDMOD SGT STOP CALLER "
		},
		"gasEstimates": {
			"creation": {
				"codeDepositCost": "166200",
				"executionCost": "208",
				"totalCost": "166408"
			},
			"external": {
				"checkOverFlow(uint256,uint256)": "infinite",
				"getResult()": "infinite"
			}
		},
		"methodIdentifiers": {
			"checkOverFlow(uint256,uint256)": "0bfb0686",
			"getResult()": "de292789"
		}
	},
	"abi": [
		{
			"inputs": [
				{
					"internalType": "uint256",
					"name": "_num1",
					"type": "uint256"
				},
				{
					"internalType": "uint256",
					"name": "_num2",
					"type": "uint256"
				}
			],
			"name": "checkOverFlow",
			"outputs": [],
			"stateMutability": "nonpayable",
			"type": "function"
		},
		{
			"inputs": [],
			"name": "getResult",
			"outputs": [
				{
					"internalType": "string",
					"name": "",
					"type": "string"
				}
			],
			"stateMutability": "view",
			"type": "function"
		}
	]
}